:100D270002090001020F0064020D00000213000017
:0F0D3800120C6E1208008E118F12120CCD80F467
:100C6E007F02120D017F987E3A120CB57F28120D6D
:100C7E00017F287E00120CB57F06120D017F287EA3
:100C8E0000120CB57F0F120D017F287E00120CB5DD
:0C0C9E007F01120D017F747E40020CB536
:100D01008F17C2A4E517120CABC2A5E517120CAAE6
:030D1100C2A52256
:100D14008F17D2A4E517120CABC2A5E517120CAAC3
:030D2400C2A52243
:0B0CAA00C454F0F580D2A57FE87E0363
:100CB500E4FDFCC3ED9FEE6480F8EC64809850077A
:070CC5000DBD00010C80ECE5
:010CCC002205
:10080000750900750A01D295D296D297750B0075BD
:100810000C64C29520900D750B00750C017F107E45
:1008200027120CB5209106750B00750C042092065A
:10083000750B00750C07209306750B00750C0AD21A
:1008400095C29620900D750B00750C027F107E27C7
:10085000120CB5209106750B00750C0520920675DB
:100860000B00750C08209306750B00750C0BD296C7
:10087000C297209006750B00750C03209106750B2E
:1008800000750C06209206750B00750C0920930666
:0D089000750B00750C0CD297AE0BAF0C224F
:100CCD00EF64644E7006F509750A0122E50A6401A8
:0C0CDD0045097007F509F50A120AAB2260
:100AAB008E158F16E51664644515603CE510B5167A
:100ABB0019E50FB51514050EE50E7002050D7F1027
:100ACB00120D01AF16AE150209B4E51065167004D0
:100ADB00E50F65156012E4F50DF50EAF16AE1512A8
:090AEB0009B485150F85161022CF
:1009B400EE705DEF14B40C0050569009CC75F00342
:1009C400A4C58325F0C583730209F00209F3020963
:1009D400F60209F90209FC0209FF020A02020A05E9
:1009E400020A08020A0B020A0E020A11020D470249
:1009F4000AF4020B33020B72020BB1020BF0020A6F
:100A040015020C2F020A60020D53020CE9120D5854
:010A140022BF
:0C0D4700E50E450D70057F31120D1422E1
:100AF400AE0DAF0E7C007D041209298C138D14E514
:100B040014451370047F418022E514640145137079
:100B1400047F428016E5146402451370047F438009
:0F0B24000AE5146403451370057F32120D142285
:100B3300AE0DAF0E7C007D041209298C138D14E5D4
:100B430014451370047F448022E514640145137037
:100B5300047F458016E5146402451370047F4680C4
:0F0B63000AE5146403451370057F33120D142245
:100B7200AE0DAF0E7C007D041209298C138D14E595
:100B820014451370047F478022E5146401451370F5
:100B9200047F488016E5146402451370047F49807F
:0F0BA2000AE5146403451370057F34120D142205
:100BB100AE0DAF0E7C007D041209298C138D14E556
:100BC10014451370047F4A8022E5146401451370B3
:100BD100047F4B8016E5146402451370047F4C803A
:0F0BE1000AE5146403451370057F35120D1422C5
:100BF000AE0DAF0E7C007D041209298C138D14E517
:100C000014451370047F4D8022E514640145137070
:100C1000047F4E8016E5146402451370047F4F80F4
:0F0C20000AE5146403451370057F36120D142284
:100A1500AE0DAF0E7C007D051209298C138D14E5F2
:100A250014451370047F50802EE51464014513703E
:100A3500047F518022E5146402451370047F5280BF
:100A450016E5146403451370047F53800AE51464A6
:0B0A550005451370057F37120D1422B9
:100C2F00AE0DAF0E7C007D041209298C138D14E5D7
:100C3F0014451370047F548022E51464014513702A
:100C4F00047F558016E5146402451370047F5680A7
:0F0C5F000AE5146403451370057F38120D142243
:100A6000AE0DAF0E7C007D051209298C138D14E5A7
:100A700014451370047F57802EE5146401451370EC
:100A8000047F588022E5146402451370047F598066
:100A900016E5146403451370047F5A800AE5146454
:0B0AA00005451370057F39120D14226C
:050D53007F2A020D14CF
:100CE900E50E450D70047F20800AE50E6401450D6F
:080CF90070057F30120D14227A
:050D58007F20020D14D4
:0300000002089D56
:0C089D00787FE4F6D8FD7581170208E4AE
:10092900C2D5EC30E709B2D5E4C39DFDE49CFCEEE9
:1009390030E715B2D5E4C39FFFE49EFE12095FC3F9
:10094900E49DFDE49CFC800312095F30D507C3E4F4
:060959009FFFE49EFE2258
:1008A900020D38E493A3F8E493A34003F68001F220
:1008B90008DFF48029E493A3F85407240CC8C33350
:1008C900C4540F4420C8834004F456800146F6DF1F
:1008D900E4800B0102040810204080900D27E47E7B
:1008E900019360BCA3FF543F30E509541FFEE49314
:1008F900A360010ECF54C025E060A840B8E493A3DB
:10090900FAE493A3F8E493A3C8C582C8CAC583CA05
:10091900F0A3C8C582C8CAC583CADFE9DEE780BEBD
:010D370000BB
:10095F00BC000BBE0029EF8DF084FFADF022E4CC7C
:10096F00F875F008EF2FFFEE33FEEC33FCEE9DEC45
:10097F00984005FCEE9DFE0FD5F0E9E4CEFD22ED8B
:10098F00F8F5F0EE8420D21CFEADF075F008EF2FD5
:10099F00FFED33FD4007985006D5F0F222C398FDC6
:0509AF000FD5F0EA2263
:00000001FF
