:1008000012084212087E7F801208CEE4FF1208E12F
:100810007F811208CE7F107E271208B6E4FF1208EF
:10082000E17F107E271208B67FC01208CE7F207E9F
:100830004E1208B6E4FF1208E17F207E4E1208B681
:0208400080CE68
:100842007F021208CE7F987E3A1208B67F281208DD
:10085200CE7F3C7E001208B67F061208CE7F3C7E19
:10086200001208B67F0F1208CE7F3C7E001208B637
:0C0872007F011208CE7F687E060208B6E7
:1008CE008F08C2A4E5081208ACC2A5E5081208AB51
:0308DE00C2A5228E
:1008E1008F08D2A4E5081208ACC2A5E5081208AB2E
:0308F100C2A5227B
:10087E007F401208CE7F151208E17F151208E17F26
:10088E00151208E17F151208E17F151208E1E4FF49
:0D089E001208E17F151208E17FC00208CEAC
:0B08AB00C454F0F580D2A57F647E00ED
:1008B600E4FDFCC3ED9FEE6480F8EC64809850077D
:0708C6000DBD00010C80ECE8
:0108CD002208
:030000000208F4FF
:0C08F400787FE4F6D8FD7581080208004A
:00000001FF
