:100DC3004154442B3931393538323937353132379B
:100DD3003B0D004154480D0057656C636F6D652EE4
:100DE3002E2E00496C6C756D696E616E63653A20D9
:100DF300256400414C45525400596F75206172655A
:0A0E0300206E6F77207361666500B2
:10100B00023B0000026000000241000003434F4B13
:05101B0000023D000091
:100E9500120EB9120EB9120EB9120EB9120EB912FE
:100EA5000EB9120EB9120EB9120EB9120EB9120EF2
:040EB500B9120EB9A7
:100EB900E4FDFCC3ED9FEE6480F8EC648098500774
:070EC9000DBD00010C80ECDF
:010ED00022FF
:100F7800AB07C28053800FEB54F04280D2817F646C
:100F88007E00120EB9C28153800FEBC454F0428028
:0A0F9800D2817F64120EB9C28122DB
:100ED1007F02120F787F987E3A120EB97F28120F87
:100EE100787F287E00120EB97F06120F787F287E48
:100EF10000120EB97F0F120F787F287E00120EB9F3
:0C0F01007F01120F787F747E40020EB951
:050F4900120F4E7F15A0
:100F4E00AB07D28053800FEB54F04280D2817F6486
:100F5E007E00120EB9C28153800FEBC454F0428052
:0A0F6E00D2817F64120EB9C2812205
:100E5300754100754201D2A17FDC7E05120EB9D225
:0F0E6300A0120EB97F01120F787BFF7A0D79F67E
:100E72008B088A09890AAB08AA09A90A120B5CFF26
:100E82006010120F4E7401250AF50AE43509F509BE
:030E920080E422D7
:100D6E008B708A718972AB73AA74A975120B5CFDB4
:100D7E00AB70AA71A972120B5CB5051D7003FEFF54
:100D8E002274012572F572E43571F57174012575C1
:100D9E00F575E43574F57480CDEDFF3395E0FEAB5B
:100DAE0070AA71A972120B5CFD3395E0FCC3ED9F26
:050DBE00FFEC9EFE2287
:100FED007F40120F787F15120F497F15120F497F21
:0E0FFD0015120F4EE4FF120F497F80020F788D
:100F0D00C2B6C2B77F647E00120EB9121055D2B4AC
:100F1D007FE87E03120EB9C2B41210557FE87E032E
:100F2D00120EB9121055C2B57F0A7E00120EB920ED
:0C0F3D00B5FDAF90753F008F40AE3F2225
:0C103400758920758DFD759850D28E22B4
:08105F008F993099FDC299221E
:081067008F993099FDC2992216
:0A104B003098FDC298AF997E002294
:10102100120B5CFF600C121067740129F9E43AFAA3
:0310310080EE222C
:100FC9007BFF7A0D79C31210217F307E75120E9541
:100FD900120EB9120E957A0D79D61210217FE87E7C
:040FE90003020EB938
:100C3F00120ED1120FED7BFF7A0D79DB120E72C2FD
:100C4F00A5C2A1C2A0C2A71210347F307E75120EAA
:100C5F00B9120EB9120E0DE56164D07004E560642F
:100C6F00077057E54245417051F560F561120F0D60
:100C7F00750BFF750C0D750DE6AE3FAF407C007D1B
:100C8F0005120B758E0E8F0F7B007A007966120896
:100C9F005C7F01120F787B007A007966120E72E486
:100CAF00F562F5631210550563E56370020562C3C3
:100CBF009420E562648094CE40EAE53C6401453BB4
:100CCF007007F53BF53C1210400561E56170850535
:030CDF00608081B1
:100E0D0030A50B120E53E4FF120F4E120FC920A383
:100E1D0034E4F541F542C2A7C2A1C2A07F01120F71
:100E2D00787BFF7A0D79FC120E72E4F562F5631290
:100E3D0010550563E56370020562C39430E5626485
:060E4D008094F540EA224A
:0A10550030A506753B00753C012232
:0B104000120E53E4FF120F4E020FC906
:03000000020CE20D
:0C0CE200787FE4F6D8FD758175020D29BD
:100B5C00BB010689828A83E0225002E722BBFE0297
:090B6C00E32289828A83E49322CA
:100B7500BC000BBE0029EF8DF084FFADF022E4CC64
:100B8500F875F008EF2FFFEE33FEEC33FCEE9DEC2D
:100B9500984005FCEE9DFE0FD5F0E9E4CEFD22ED73
:100BA500F8F5F0EE8420D21CFEADF075F008EF2FBD
:100BB500FFED33FD4007985006D5F0F222C398FDAE
:050BC5000FD5F0EA224B
:10080000E517240BF8E60517227808300702780B65
:10081000E475F001120C09020B5C2000EB7F2ED274
:10082000008018EF540F2490D43440D4FF30040BD0
:10083000EF24BFB41A0050032461FFE518600215CD
:1008400018051BE51B7002051A30070D7808E475C2
:10085000F001120C09EF020BF7020FA27403D2078A
:100860008003E4C207F5178B088A09890AE4F518A2
:10087000F51AF51BE51860077F2012083B80F57517
:1008800019FFC201C200C202C203C205C206C208E9
:10089000120809FF700D3007057F0012084CAF1BCE
:1008A000AE1A22B4255FC2D5C204120809FF24D0B3
:1008B000B40A00501A75F00A781830D50508B6FF4A
:1008C0000106C6A426F620D5047002D20380D924DE
:1008D000CFB41A00EF5004C2E5D204020A4CD20190
:1008E00080C6D20080C0D20280BCD2D580BAD205E8
:1008F00080B47F2012083B2002077401B518004025
:10090000F1120800FF12083B020874D208D20680D8
:1009100095120800FB120800FA120800F94A4B7001
:1009200006791D7A0B7BFF20022EE518602A7E00D7
:100930008E82758300120BCA60060EEE651970F088
:10094000C2D5EBC0E0EAC0E0E9C0E0EE120A93D005
:10095000E0F9D0E0FAD0E0FB120B5CFF60AAEBC03C
:10096000E0EAC0E0E9C0E012083BD0E02401F9D0A1
:10097000E03400FAD0E0FBE5190460DCD519D98039
:10098000877BFF7A0A798FD202809C791080027966
:1009900008C206C2088008D2D5790A8004790AC242
:1009A000D5E519047002F519E4FAFDFEFF120800FE
:1009B000FC7B08200113120800FD7B1030000A1296
:1009C0000800FE120800FF7B20EC3382D592D55040
:1009D00013C3E43000069FFFE49EFEE42001039D64
:1009E000FDE49CFCE4CBF8C201EC700CCFCECDCC86
:1009F000E824F8F870F38017C3EF33FFEE33FEED11
:100A000033FDEC33FCEB33FB994002FB0FD8E9EBF1
:100A1000300105F8D0E0C448B201C0E00AEC4D4E08
:100A20004F78207B0070C2EAB5190040BCC0E012CC
:100A30000A95D0F0D0E0200104C4C0E0C4B201C0E7
:100A4000F0120824D0F0D5F0EB020874120C19094A
:100A50001153098B5808E24C08DE42098F4F099761
:0F0A60004409974908F743099D550981460981C3
:100A6F00450981470B3D5008E62D08EA2E090D2B4D
:100A7F0008EE23090B200B262A08A64800000905BB
:100A8F003F3F3F00790AA2D5200314300509B91062
:100A9F00020404B9080104A2D52006025001042063
:100AAF0002689202B518005034C0E07F203003195D
:100ABF007F30A20272067205500F120AECC202C2F8
:100ACF0006C205C2087F30800F300503E9C0E0126F
:100ADF00083B300503D0E0F9D0E0B518CC3005174E
:100AEF007F30B9100C12083B7F583004077F788095
:100AFF0003B9080312083B3002057F2D02083B7F24
:100B0F00202008F87F2B2006F322920280CF286E38
:100B1F00756C6C2900D2011208003001F8C20178FF
:100B2F001830D50108F60208A62D5043495812086F
:100B3F00002403B405004001E4900B389312082CF5
:0D0B4F00743A12082CD20375180402098BA9
:100CEE00020C3FE493A3F8E493A34003F68001F2D1
:100CFE0008DFF48029E493A3F85407240CC8C33307
:100D0E00C4540F4420C8834004F456800146F6DFD5
:100D1E00E4800B010204081020408090100BE47E4A
:100D2E00019360BCA3FF543F30E509541FFEE493CA
:100D3E00A360010ECF54C025E060A840B8E493A391
:100D4E00FAE493A3F8E493A3C8C582C8CAC583CABC
:100D5E00F0A3C8C582C8CAC583CADFE9DEE780BE74
:0110200000CF
:100BCA00BB010CE58229F582E5833AF583E02250E0
:100BDA0006E92582F8E622BBFE06E92582F8E2222A
:0D0BEA00E58229F582E5833AF583E4932244
:100BF700BB010689828A83F0225002F722BBFE01DD
:020C0700F322D6
:100C0900FAE6FB0808E6F925F0F618E6CA3AF622EC
:100C1900D083D082F8E4937012740193700DA3A36A
:100C290093F8740193F5828883E47374029368607E
:060C3900EFA3A3A380DF7E
:100FA200EFB40A07740D120FAD740A309811A899A4
:100FB200B8130CC2983098FDA899C298B811F630AF
:070FC20099FDC299F5992287
:00000001FF
