:100D03003138373933004143434553532047524128
:100D13004E544544004143434553532044454E49B3
:030D230045440044
:040D6300024000004A
:100D2600120C6CE4F540F541120BC58F3F120CA86E
:070D3600AF3F120B4A80F1F0
:100C6C007F02120D3D7F987E3A120CEB7F28120DFD
:100C7C003D7F287E00120CEB7F06120D3D7F287EF7
:100C8C0000120CEB7F0F120D3D7F287E00120CEB37
:0C0C9C007F01120D3D7F747E40020CEBC6
:100D3D008F32C2A4E532120CE1C2A5E532120CE0ED
:030D4D00C2A5221A
:100D50008F32D2A4E532120CE1C2A5E532120CE0CA
:030D6000C2A52207
:0B0CE000C454F0F580D2A57FE87E032D
:100CEB00E4FDFCC3ED9FEE6480F8EC648098500744
:070CFB000DBD00010C80ECAF
:010D020022CE
:100BC500D295D296D29775346EC29520900375341E
:100BD50033209103753436209203753439209303FD
:100BE500753423D295C29620900375343220910333
:100BF500753435209203753438209303753430D21B
:100C050096C29720900375343120910375343420B2
:100C1500920375343720930375342AD297AF342263
:100CA8008F08E534B46E0475330122E533B40127A7
:100CB800E4F533C3E5419405E54094005019AF08C5
:100CC800120D5074352541F8A6080541E54170021A
:080CD80005402435F8E4F62282
:050B4A00EF642A707544
:100B4F0078087C00FD7BFF7A0D7903FE7F06120883
:100B5F00D0780E7C007D007BFF7A0D79097E007FB7
:100B6F000F1208D0781D7C007D007BFF7A0D79185D
:100B7F007E007F0E1208D078087C007D007B007A03
:100B8F00007935120AA1EF3395E0F52B8F2C452C08
:100B9F007F017010120D3D7F0C120D3D7B007A000E
:100BAF00790E800E120D3D7F0C120D3D7B007A00E9
:050BBF00791D120C2558
:010BC400220E
:060C25008B2D8A2E892FA1
:100C2B00E4F530F531AB2DAA2EA92F853182853015
:100C3B00831208F6602AE5316410453070057FC0D9
:100C4B00120D3DAB2DAA2EA92F8531828530831233
:100C5B0008F6FF120D500531E53170C9053080C51E
:010C6B002266
:03000000020ABE33
:0C0ABE00787FE4F6D8FD758141020B053D
:10080000E709F608DFFA8046E709F208DFFA803EDA
:1008100088828C83E709F0A3DFFA8032E309F608C7
:10082000DFFA8078E309F208DFFA807088828C832F
:10083000E309F0A3DFFA806489828A83E0A3F608E3
:10084000DFFA805889828A83E0A3F208DFFA804CBD
:1008500080D280FA80C680D4806980F28033801094
:1008600080A680EA809A80A880DA80E280CA8033FD
:1008700089828A83ECFAE493A3C8C582C8CCC58375
:10088000CCF0A3C8C582C8CCC583CCDFE9DEE78045
:100890000D89828A83E493A3F608DFF9ECFAA9F0C4
:1008A000EDFB2289828A83ECFAE0A3C8C582C8CC1A
:1008B000C583CCF0A3C8C582C8CCC583CCDFEADE33
:1008C000E880DB89828A83E493A3F208DFF980CC95
:1008D00088F0EF60010E4E60C388F0ED2402B4048E
:1008E0000050B9F582EB2402B4040050AF23234535
:0608F00082239008507302
:1008F600BB010CE58229F582E5833AF583E02250B7
:1009060006E92582F8E622BBFE06E92582F8E22200
:0D091600E58229F582E5833AF583E493221A
:10092300E3F5F009E208B5F06D606B80F3E3F5F0F1
:1009330009E608B5F060605E80F387F009E608B564
:10094300F054605280F487F009E208B5F04860463D
:1009530080F488828C8387F009E0A3B5F038603691
:1009630080F488828C8387F009E493A3B5F0276031
:100973002580F388828C83E3F5F009E0A3B5F016B4
:10098300601480F388828C83E3F5F009E493A3B5C4
:10099300F004600280F2020A4E808580E7808E8038
:1009A300D2803C8015806C807E809B80B5808B805C
:1009B300A1804F8070803A020A5A89828A83ECFAB6
:1009C300E493F5F0A3C8C582C8CCC583CCE493A354
:1009D300C8C582C8CCC583CCB5F070606E80E18990
:1009E300828A83E493F5F0A3E208B5F05E605C804D
:1009F300F289828A83E0F5F0A3E608B5F04D604BF7
:100A030080F389828A83E0F5F0A3E208B5F03C60C5
:100A13003A80F389828A83E493F5F0A3E608B5F07C
:100A23002A602880F2805389828A83ECFAE493F562
:100A3300F0A3C8C582C8CCC583CCE0A3C8C582C80F
:100A4300CCC583CCB5F004600280E27FFFB5F00231
:100A53000F2240027F012289828A83ECFAE0F5F0BB
:100A6300A3C8C582C8CCC583CCE0A3C8C582C8CC03
:100A7300C583CCB5F0D560D380E389828A83ECFA51
:100A8300E0F5F0A3C8C582C8CCC583CCE493A3C862
:100A9300C582C8CCC583CCB5F0B160AF80E288F025
:100AA300ED2402B4040050A3F582EB2402B4040045
:0B0AB3005099232345822390099C7377
:100ACA00020D26E493A3F8E493A34003F68001F20F
:100ADA0008DFF48029E493A3F85407240CC8C3332D
:100AEA00C4540F4420C8834004F456800146F6DFFC
:100AFA00E4800B0102040810204080900D63E47E1C
:100B0A00019360BCA3FF543F30E509541FFEE493F0
:100B1A00A360010ECF54C025E060A840B8E493A3B7
:100B2A00FAE493A3F8E493A3C8C582C8CAC583CAE2
:100B3A00F0A3C8C582C8CAC583CADFE9DEE780BE9A
:010D6700008B
:00000001FF
