:10096700010D00010B000108000109000A0FC0F981
:0B097700A4B0999282F88090010E005D
:10092A00D2AFD2A9758901758CFF758A9CD28CE5E4
:0F093A000AB40106E4F50A12088C1208E980F0ED
:10098300E4FDFCC3ED9FEE6480F8EC6480985007AF
:070993000DBD00010C80EC1A
:01099A00223A
:10088C00C2B6C2B7D2B27F327E00120983D2B21284
:10089C000983C2B2C2B220B3FD30B3FD7580FFD262
:1008AC00B585800CC2B5E50C75F00A8485F00DE5B4
:1008BC000C75F00A84F50C75F00A8485F00BE50CC8
:1008CC0075F00A84F50C75F00A8485F008E50C7552
:0D08DC00F00A84F50C75F00A8485F00922FD
:1008E900740F250DF8E6F580C2A07F647E00120919
:1008F90083D2A0740F250BF8E6F580C2A1120983F3
:10090900D2A1740F2508F8E6F580C2A2120983D294
:10091900A2740F2509F8E6F580C2A3120983D2A3B0
:0109290022AB
:03000B000209499E
:10094900C0E0C0D0758CFF758A9CB2B4050EE50E67
:0E095900B49606750E00750A01D0D0D0E032BB
:03000000020800F3
:0C080000787FE4F6D8FD758118020847E7
:10080C0002092AE493A3F8E493A34003F68001F2CF
:10081C0008DFF48029E493A3F85407240CC8C333ED
:10082C00C4540F4420C8834004F456800146F6DFBC
:10083C00E4800B0102040810204080900967E47EDC
:10084C00019360BCA3FF543F30E509541FFEE493B1
:10085C00A360010ECF54C025E060A840B8E493A378
:10086C00FAE493A3F8E493A3C8C582C8CAC583CAA3
:10087C00F0A3C8C582C8CAC583CADFE9DEE780BE5B
:010982000074
:00000001FF
