:1009EA0048656C6C6F2C486F772061726520597569
:1009FA0049276D2046696E65205468616E6B2075C3
:010A0A0000EB
:1009C90078087C007D007BFF7A0979EA7E007F2127
:1009D9001208D012096A7B007A007908120923806B
:0109E900FE0F
:10096A007F02120A0B7F987E3A1209B17F28120A77
:10097A000B7F287E001209B17F06120A0B7F287EA0
:10098A00001209B17F0F120A0B7F287E001209B1EB
:0C099A007F01120A0B7F747E400209B13D
:100A0B008F2EC2A4E52E1209A7C2A5E52E1209A6A8
:030A1B00C2A5224F
:100A1E008F2ED2A4E52E1209A7C2A5E52E1209A685
:030A2E00C2A5223C
:060923008B298A2A892BB2
:10092900E4F52CF52DAB29AA2AA92B852D82852C36
:10093900831208F6602AE52D6410452C70057FC0E6
:10094900120A0BAB29AA2AA92B852D82852C831281
:1009590008F6FF120A1E052DE52D70C9052C80C564
:01096900226B
:0B09A600C454F0F580D2A57FE87E036A
:1009B100E4FDFCC3ED9FEE6480F8EC648098500781
:0709C1000DBD00010C80ECEC
:0109C800220C
:03000000020A31C0
:0C0A3100787FE4F6D8FD75812E0209C91B
:10080000E709F608DFFA8046E709F208DFFA803EDA
:1008100088828C83E709F0A3DFFA8032E309F608C7
:10082000DFFA8078E309F208DFFA807088828C832F
:10083000E309F0A3DFFA806489828A83E0A3F608E3
:10084000DFFA805889828A83E0A3F208DFFA804CBD
:1008500080D280FA80C680D4806980F28033801094
:1008600080A680EA809A80A880DA80E280CA8033FD
:1008700089828A83ECFAE493A3C8C582C8CCC58375
:10088000CCF0A3C8C582C8CCC583CCDFE9DEE78045
:100890000D89828A83E493A3F608DFF9ECFAA9F0C4
:1008A000EDFB2289828A83ECFAE0A3C8C582C8CC1A
:1008B000C583CCF0A3C8C582C8CCC583CCDFEADE33
:1008C000E880DB89828A83E493A3F208DFF980CC95
:1008D00088F0EF60010E4E60C388F0ED2402B4048E
:1008E0000050B9F582EB2402B4040050AF23234535
:0608F00082239008507302
:1008F600BB010CE58229F582E5833AF583E02250B7
:1009060006E92582F8E622BBFE06E92582F8E22200
:0D091600E58229F582E5833AF583E493221A
:00000001FF
