:10094600010B00010A00010800010900020C000069
:0C0956000A0EC0F9A4B0999282F88090BB
:10096300D2AFD2A97589011208E6758C4B758AFD41
:07097300D28C1208E680FBA4
:1008E600740E250BF8E6F580C2A0D2A0740E250A78
:1008F600F8E6F580C2A1D2A1740E2508F8E6F580C7
:10090600C2A2D2A2740E2509F8E6F580C2A3D2A32C
:0109160022BE
:03000B0002088C5C
:10088C00C0E0C0F0C083C082C0D075D000C000C032
:10089C0001C002C003C004C005C006C007758C4B64
:1008AC00758AFD050DE50D7002050CC39414E50C5D
:1008BC00648094804009750C00750D00120917D0E6
:1008CC0007D006D005D004D003D002D001D000D080
:0A08DC00D0D082D083D0F0D0E032FB
:10091700050BE50BB40A05E4F50B050AE50AB40671
:1009270005E4F50A0508E508B40A05E4F50805092C
:0F093700E509B40609E4F509F50BF50AF5082200
:03000000020800F3
:0C080000787FE4F6D8FD758117020847E8
:10080C00020963E493A3F8E493A34003F68001F296
:10081C0008DFF48029E493A3F85407240CC8C333ED
:10082C00C4540F4420C8834004F456800146F6DFBC
:10083C00E4800B0102040810204080900946E47EFD
:10084C00019360BCA3FF543F30E509541FFEE493B1
:10085C00A360010ECF54C025E060A840B8E493A378
:10086C00FAE493A3F8E493A3C8C582C8CAC583CAA3
:10087C00F0A3C8C582C8CAC583CADFE9DEE780BE5B
:010962000094
:00000001FF
