:10080000C294D2AF758901D28CE4F508F509E4F5FC
:1008100080AF09AE0812086F7580FFC374F49509A4
:10082000FF74019508FE12086F0509E509700205BD
:1008300008C394F4E508940140D4E4F508F509C32D
:10084000E5099426E508940250BF7580FFAF09AE14
:100850000812086FE4F580C374269509FF740295A9
:0F08600008FE12086F0509E50970D4050880D05D
:10086F00E4F50AF50BC3E50B9FE50A9E5019758C4D
:10087F00FF758AEBD28C308DFDC28DC28C050BE5D6
:08088F000B70E2050A80DE2275
:030000000208975C
:0C089700787FE4F6D8FD75810D020800A2
:00000001FF
