:08090900020A0000020C0001CB
:0E08FA00E4FFFE0FBF00010EBE75F8BF30F523
:0109080022CC
:10088C00C294750E00750F08750800750980E4F5A3
:10089C0010F511C3E511950FE50E6480F8E51064B1
:1008AC0080985020E509450BF4F580E508A2E71384
:1008BC00F508E50913F5091208FA0511E51170D3CD
:1008CC00051080CFE50B25E0F50BE50A33F50AE5BD
:1008DC000D420BE50C420AE50F150F7002150ED3F5
:0E08EC00E50F9400E50E64809480509C80948B
:03000000020800F3
:0C080000787FE4F6D8FD758111020847EE
:10080C0002088CE493A3F8E493A34003F68001F26E
:10081C0008DFF48029E493A3F85407240CC8C333ED
:10082C00C4540F4420C8834004F456800146F6DFBC
:10083C00E4800B0102040810204080900909E47E3A
:10084C00019360BCA3FF543F30E509541FFEE493B1
:10085C00A360010ECF54C025E060A840B8E493A378
:10086C00FAE493A3F8E493A3C8C582C8CAC583CAA3
:10087C00F0A3C8C582C8CAC583CADFE9DEE780BE5B
:0109110000E5
:00000001FF
