:1008BD00010B00010A010108020109030A0CC0F92C
:0808CD00A4B0999282F880901A
:0508D60012088C80FBFC
:10088C00740C250BF8E6F580C2A0D2A0740C250AD6
:10089C00F8E6F580C2A1D2A1740C2508F8E6F58023
:1008AC00C2A2D2A2740C2509F8E6F580C2A3D2A389
:0108BC002219
:03000000020800F3
:0C080000787FE4F6D8FD758115020847EA
:10080C000208D6E493A3F8E493A34003F68001F224
:10081C0008DFF48029E493A3F85407240CC8C333ED
:10082C00C4540F4420C8834004F456800146F6DFBC
:10083C00E4800B01020408102040809008BDE47E87
:10084C00019360BCA3FF543F30E509541FFEE493B1
:10085C00A360010ECF54C025E060A840B8E493A378
:10086C00FAE493A3F8E493A3C8C582C8CAC583CAA3
:10087C00F0A3C8C582C8CAC583CADFE9DEE780BE5B
:0108D5000022
:00000001FF
