:1008AD004B79612062796F6D69206E616C6C613F6F
:1008BD0000616C6C616E20736920656873207365CF
:0208CD005900D0
:10083C001208007F801208E87F061208E87BFF7A16
:10084C000879AD12088A7FCF1208E87F041208E8F5
:0B085C007BFF7A0879BE12088A80D862
:100800007F021208E87F987E3A1208727F28120849
:10081000E87F287E001208727F061208E87F287E93
:10082000001208727F0F1208E87F287E00120872FB
:0C0830007F011208E87F747E400208720D
:1008E8008F0AC2A4E50A120868C2A5E50A120867B9
:0308F800C2A52274
:1008FB008F0DD2A4E50D120868C2A5E50D1208678D
:03090B00C2A52260
:0B086700C454F0F580D2A57FE87E03AA
:10087200E4FDFCC3ED9FEE6480F8EC6480985007C1
:070882000DBD00010C80EC2C
:01088900224C
:10088A008B0A8A0B890CAB0AAA0BA90C1208CFFF98
:10089A0060101208FB7401250CF50CE4350BF50BFE
:0308AA0080E422C5
:0300000002090EE4
:0C090E00787FE4F6D8FD75810D02083CEE
:1008CF00BB010689828A83E0225002E722BBFE0227
:0908DF00E32289828A83E493225A
:00000001FF
