:10091A0068656C6C6F00756F59657241776F480036
:100800007509CF1208447508807F061209067F011A
:10081000120906AF081209067BFF7A09791A120835
:10082000A81208D17F04120906AF091209067BFF3E
:100830007A0979201208A815090508E508C3948FDC
:0408400040C780C26B
:100844007F021209067F987E3A1208D57F28120982
:10085400067F287E001208D57F061209067F287EAF
:10086400001208D57F0F1209067F287E001208D5D2
:0C0874007F011209067F747E400208D547
:100906008F0AC2A4E50A1208CBC2A5E50AC41208DA
:04091600CBC2A52289
:100880008F0DD2A4E50D54F0F580D2A57F0A7E002D
:100890001208D5C2A5E50DC454F0F580D2A57F0A93
:0808A0007E001208D5C2A5225A
:0A08CB0054F0F580D2A57FE87E030B
:1008D500E4FDFCC3ED9FEE6480F8EC64809850075E
:0708E5000DBD00010C80ECC9
:0108EC0022E9
:1008A8008B0A8A0B890CAB0AAA0BA90C1208EDFF5C
:1008B80060101208807401250CF50CE4350BF50B5B
:0308C80080E422A7
:0300000002092AC8
:0C092A00787FE4F6D8FD75810D0208000E
:1008ED00BB010689828A83E0225002E722BBFE0209
:0908FD00E32289828A83E493223C
:00000001FF
