:1009B100010B00010A010108020109030A10C0F933
:0809C100A4B0999282F8809025
:0C09CA0012088C8E0E8F0F12096480F44E
:10096400C3EF940AEE64809480500C74102FF8E660
:10097400F580C2A0D2A0228E1E8F1F7C007D0A1299
:10098400090F8C1A8D1B7410251BF8E6F580C2A084
:10099400D2A0AE1EAF1F7C007D0A12090F8E1C8FE1
:0D09A4001D74102FF8E6F580C2A3D2A32227
:10088C00D295D296D297C295209006750C00750D14
:10089C0001209106750C00750D02209206750C0056
:1008AC00750D03209306750C00750D0AD295C29632
:1008BC00209006750C00750D04209106750C0075C2
:1008CC000D05209206750C00750D06209306750C0F
:1008DC0000750D0BD296C297209006750C00750D05
:1008EC0007209106750C00750D08209206750C00FA
:1008FC00750D09209306750C00750D0CD297AE0C76
:03090C00AF0D220A
:03000000020800F3
:0C080000787FE4F6D8FD75811F020847E0
:10090F00BC000BBE0029EF8DF084FFADF022E4CCCC
:10091F00F875F008EF2FFFEE33FEEC33FCEE9DEC95
:10092F00984005FCEE9DFE0FD5F0E9E4CEFD22EDDB
:10093F00F8F5F0EE8420D21CFEADF075F008EF2F25
:10094F00FFED33FD4007985006D5F0F222C398FD16
:05095F000FD5F0EA22B3
:10080C000209CAE493A3F8E493A34003F68001F22F
:10081C0008DFF48029E493A3F85407240CC8C333ED
:10082C00C4540F4420C8834004F456800146F6DFBC
:10083C00E4800B01020408102040809009B1E47E92
:10084C00019360BCA3FF543F30E509541FFEE493B1
:10085C00A360010ECF54C025E060A840B8E493A378
:10086C00FAE493A3F8E493A3C8C582C8CAC583CAA3
:10087C00F0A3C8C582C8CAC583CADFE9DEE780BE5B
:0109C900002D
:00000001FF
