:0C0A36000A12C0F9A4B0999282F88090D6
:0F0A27001209178E108F111209A01209F680F113
:1009F6007412250DF8E6F580C2A0D2A07412250C5B
:100A0600F8E6F580C2A1D2A174122508F8E6F580B1
:100A1600C2A2D2A274122509F8E6F580C2A3D2A317
:010A260022AD
:10091700D295D296D297750E00750F64C295209026
:1009270006750E00750F01209106750E00750F02F2
:10093700209206750E00750F03209306750E00753D
:100947000F0AD295C296209006750E00750F0420E7
:100957009106750E00750F05209206750E00750F2E
:1009670006209306750E00750F0BD296C29720903E
:1009770006750E00750F07209106750E00750F0896
:10098700209206750E00750F09209306750E0075E7
:090997000F0CD297AE0EAF0F2237
:1009A000AB07AA06E50F6464450E7006F50A750BE1
:1009B0000122E50B6401450A703BF50AF50BC3EB18
:1009C000940AEA64809480500C850809850C088597
:1009D0000D0C8B0D22850C09850D087C007D0AAF5E
:1009E00003AE0212088C8D0DAE02AF037C007D0AAF
:0609F00012088C8F0C229E
:03000000020800F3
:0C080000787FE4F6D8FD75811B020847E4
:10088C00C2D5EC30E709B2D5E4C39DFDE49CFCEE87
:10089C0030E715B2D5E4C39FFFE49EFE1208C2C335
:1008AC00E49DFDE49CFC80031208C230D507C3E430
:0608BC009FFFE49EFE22F6
:10080C00020A27E493A3F8E493A34003F68001F2D1
:10081C0008DFF48029E493A3F85407240CC8C333ED
:10082C00C4540F4420C8834004F456800146F6DFBC
:10083C00E4800B0102040810204080900A36E47E0C
:10084C00019360BCA3FF543F30E509541FFEE493B1
:10085C00A360010ECF54C025E060A840B8E493A378
:10086C00FAE493A3F8E493A3C8C582C8CAC583CAA3
:10087C00F0A3C8C582C8CAC583CADFE9DEE780BE5B
:010A420000B3
:1008C200BC000BBE0029EF8DF084FFADF022E4CC1A
:1008D200F875F008EF2FFFEE33FEEC33FCEE9DECE3
:1008E200984005FCEE9DFE0FD5F0E9E4CEFD22ED29
:1008F200F8F5F0EE8420D21CFEADF075F008EF2F73
:10090200FFED33FD4007985006D5F0F222C398FD63
:050912000FD5F0EA2200
:00000001FF
