:1008EB00010D00010C00010800010900020A0000C3
:0C08FB000A0EC0F9A4B0999282F8809017
:1008BD00758801D2A8D2AFE50B6401450A701AF50F
:1008CD000AF50B050DE50DB40A05E4F50D050CE56E
:0E08DD000CB40A05E4F50C050812088C80D94D
:10088C00740E250DF8E6F580C2A0D2A0740E250CCE
:10089C00F8E6F580C2A1D2A1740E2508F8E6F58021
:1008AC00C2A2D2A2740E2509F8E6F580C2A3D2A387
:0108BC002219
:03000300020908E7
:07090800750A00750B0132B6
:03000000020800F3
:0C080000787FE4F6D8FD758117020847E8
:10080C000208BDE493A3F8E493A34003F68001F23D
:10081C0008DFF48029E493A3F85407240CC8C333ED
:10082C00C4540F4420C8834004F456800146F6DFBC
:10083C00E4800B01020408102040809008EBE47E59
:10084C00019360BCA3FF543F30E509541FFEE493B1
:10085C00A360010ECF54C025E060A840B8E493A378
:10086C00FAE493A3F8E493A3C8C582C8CAC583CAA3
:10087C00F0A3C8C582C8CAC583CADFE9DEE780BE5B
:0109070000EF
:00000001FF
