:100E2A0057656C636F6D652E2E2E00256400414C4C
:100E3A0045525400596F7520617265206E6F772094
:050E4A00736166650004
:0D0EB200023B000103414F4B00023D0000D8
:100DCB0053800FEB54F04280D2817F647E00120D72
:100DDB00EBC28153800FEBC454F04280D2817F640D
:100DEB00E4FDFCC3ED9FEE6480F8EC648098500743
:070DFB000DBD00010C80ECAE
:010E020022CD
:0A0EE500AB07C280120DCBC28122C0
:100D53007F02120EE57F987E3A120DEB7F28120E6A
:100D6300E57F287E00120DEB7F06120EE57F287EBD
:100D730000120DEB7F0F120EE57F287E00120DEBA4
:0C0D83007F01120EE57F747E40020DEB34
:050EA300120EA87F15EE
:0A0EA800AB07D280120DCBC28122ED
:100E4F008B088A09890AAB08AA09A90A120B5CFF49
:100E5F006010120EA87401250AF50AE43509F50988
:030E6F0080E422FA
:100C76008B6C8A6D896EAB6FAA70A971120B5CFDC5
:100C8600AB6CAA6DA96E120B5CB5051D7003FEFF59
:100C9600227401256EF56EE4356DF56D74012571CE
:100CA600F571E43570F57080CDEDFF3395E0FEAB60
:100CB6006CAA6DA96E120B5CFD3395E0FCC3ED9F2B
:050CC600FFEC9EFE2280
:100E72007F40120EE57F15120EA37F15120EA37F7F
:0E0E820015120EA8E4FF120EA37F80020EE5EB
:100D8F00C2B6C2B77F647E00120DEB120EF9D2B459
:100D9F007FE87E03120DEBC2B4120EF97FE87E03DB
:100DAF00120DEB120EF9C2B57F0A7E00120DEB2069
:0C0DBF00B5FDAF90753F008F40AE3F22A5
:0C0ECD00758920758DFD759850D28E221D
:080F03008F993099FDC299227B
:0D0EC0003098FD74442561F8A699C298226F
:010F130022BB
:0C0ED900758920758DFD759850D28E2211
:080F0B008F993099FDC2992273
:0A0EEF003098FDC298AF997E0022F2
:100E9000120B5CFF600C120F0B740129F9E43AFA93
:030EA00080EE22BF
:100CCB00120D53120E727BFF7A0E792A120E4F12EF
:100CDB000ED9C2A5C2A1C2A0C2A7120D14120D8FAC
:100CEB00750BFF750C0E750D35853F0E85400F7B13
:100CFB00007A00796212085CE53C6401453B70DACE
:090D0B00F53BF53C120D1480D1FA
:100D140030A524D2A17FDC7E05120DEBD2A0120DEA
:100D2400EB7F01120EE57BFF7A0E7938120E4FE449
:100D3400FF120EA8120F1320A314C2A7C2A1C2A0AF
:0F0D44007F01120EE57BFF7A0E793E120E4F22D1
:0A0EF90030A506753B00753C012290
:03000000020BEA06
:0C0BEA00787FE4F6D8FD758171020C31B3
:100B5C00BB010689828A83E0225002E722BBFE0297
:090B6C00E32289828A83E49322CA
:10080000E517240BF8E60517227808300702780B65
:10081000E475F001120BB4020B5C2000EB7F2ED2CA
:10082000008018EF540F2490D43440D4FF30040BD0
:10083000EF24BFB41A0050032461FFE518600215CD
:1008400018051BE51B7002051A30070D7808E475C2
:10085000F001120BB4EF020BA2020E037403D207D5
:100860008003E4C207F5178B088A09890AE4F518A2
:10087000F51AF51BE51860077F2012083B80F57517
:1008800019FFC201C200C202C203C205C206C208E9
:10089000120809FF700D3007057F0012084CAF1BCE
:1008A000AE1A22B4255FC2D5C204120809FF24D0B3
:1008B000B40A00501A75F00A781830D50508B6FF4A
:1008C0000106C6A426F620D5047002D20380D924DE
:1008D000CFB41A00EF5004C2E5D204020A4CD20190
:1008E00080C6D20080C0D20280BCD2D580BAD205E8
:1008F00080B47F2012083B2002077401B518004025
:10090000F1120800FF12083B020874D208D20680D8
:1009100095120800FB120800FA120800F94A4B7001
:1009200006791D7A0B7BFF20022EE518602A7E00D7
:100930008E82758300120B7560060EEE651970F0DD
:10094000C2D5EBC0E0EAC0E0E9C0E0EE120A93D005
:10095000E0F9D0E0FAD0E0FB120B5CFF60AAEBC03C
:10096000E0EAC0E0E9C0E012083BD0E02401F9D0A1
:10097000E03400FAD0E0FBE5190460DCD519D98039
:10098000877BFF7A0A798FD202809C791080027966
:1009900008C206C2088008D2D5790A8004790AC242
:1009A000D5E519047002F519E4FAFDFEFF120800FE
:1009B000FC7B08200113120800FD7B1030000A1296
:1009C0000800FE120800FF7B20EC3382D592D55040
:1009D00013C3E43000069FFFE49EFEE42001039D64
:1009E000FDE49CFCE4CBF8C201EC700CCFCECDCC86
:1009F000E824F8F870F38017C3EF33FFEE33FEED11
:100A000033FDEC33FCEB33FB994002FB0FD8E9EBF1
:100A1000300105F8D0E0C448B201C0E00AEC4D4E08
:100A20004F78207B0070C2EAB5190040BCC0E012CC
:100A30000A95D0F0D0E0200104C4C0E0C4B201C0E7
:100A4000F0120824D0F0D5F0EB020874120BC409A0
:100A50001153098B5808E24C08DE42098F4F099761
:0F0A60004409974908F743099D550981460981C3
:100A6F00450981470B3D5008E62D08EA2E090D2B4D
:100A7F0008EE23090B200B262A08A64800000905BB
:100A8F003F3F3F00790AA2D5200314300509B91062
:100A9F00020404B9080104A2D52006025001042063
:100AAF0002689202B518005034C0E07F203003195D
:100ABF007F30A20272067205500F120AECC202C2F8
:100ACF0006C205C2087F30800F300503E9C0E0126F
:100ADF00083B300503D0E0F9D0E0B518CC3005174E
:100AEF007F30B9100C12083B7F583004077F788095
:100AFF0003B9080312083B3002057F2D02083B7F24
:100B0F00202008F87F2B2006F322920280CF286E38
:100B1F00756C6C2900D2011208003001F8C20178FF
:100B2F001830D50108F60208A62D5043495812086F
:100B3F00002403B405004001E4900B389312082CF5
:0D0B4F00743A12082CD20375180402098BA9
:100BF600020CCBE493A3F8E493A34003F68001F23E
:100C060008DFF48029E493A3F85407240CC8C333FF
:100C1600C4540F4420C8834004F456800146F6DFCE
:100C2600E4800B0102040810204080900EB2E47E9E
:100C3600019360BCA3FF543F30E509541FFEE493C3
:100C4600A360010ECF54C025E060A840B8E493A38A
:100C5600FAE493A3F8E493A3C8C582C8CAC583CAB5
:100C6600F0A3C8C582C8CAC583CADFE9DEE780BE6D
:010EBF000032
:100B7500BB010CE58229F582E5833AF583E0225035
:100B850006E92582F8E622BBFE06E92582F8E2227F
:0D0B9500E58229F582E5833AF583E4932299
:100BA200BB010689828A83F0225002F722BBFE0132
:020BB200F3222C
:100BB400FAE6FB0808E6F925F0F618E6CA3AF62242
:100BC400D083D082F8E4937012740193700DA3A3C0
:100BD40093F8740193F5828883E4737402936860D4
:060BE400EFA3A3A380DFD4
:100E0300EFB40A07740D120E0E740A309811A899E4
:100E1300B8130CC2983098FDA899C298B811F6304F
:070E230099FDC299F5992227
:00000001FF
