:0C0A0E000A10C0F9A4B0999282F8809000
:0F09FF001209178E0E8F0F12099A1209CE80F16E
:1009CE007410250BF8E6F580C2A0D2A07410250A8B
:1009DE00F8E6F580C2A1D2A174102508F8E6F580DC
:1009EE00C2A2D2A274102509F8E6F580C2A3D2A342
:0109FE0022D6
:10091700D295D296D297C295209006750C00750D88
:1009270001209106750C00750D02209206750C00CA
:10093700750D03209306750C00750D0AD295C296A6
:10094700209006750C00750D04209106750C007536
:100957000D05209206750C00750D06209306750C83
:1009670000750D0BD296C297209006750C00750D79
:1009770007209106750C00750D08209206750C006E
:10098700750D09209306750C00750D0CD297AE0CEA
:03099700AF0D227F
:10099A00AB07AA06C3EB940AEA64809480500AE47F
:1009AA00F509F508F50A8B0B227C007D0AAF03AE28
:1009BA000212088C8D0BAE02AF037C007D0A12086E
:0409CA008C8F0822E4
:03000000020800F3
:0C080000787FE4F6D8FD75811F020847E0
:10088C00C2D5EC30E709B2D5E4C39DFDE49CFCEE87
:10089C0030E715B2D5E4C39FFFE49EFE1208C2C335
:1008AC00E49DFDE49CFC80031208C230D507C3E430
:0608BC009FFFE49EFE22F6
:10080C000209FFE493A3F8E493A34003F68001F2FA
:10081C0008DFF48029E493A3F85407240CC8C333ED
:10082C00C4540F4420C8834004F456800146F6DFBC
:10083C00E4800B0102040810204080900A0EE47E34
:10084C00019360BCA3FF543F30E509541FFEE493B1
:10085C00A360010ECF54C025E060A840B8E493A378
:10086C00FAE493A3F8E493A3C8C582C8CAC583CAA3
:10087C00F0A3C8C582C8CAC583CADFE9DEE780BE5B
:010A1A0000DB
:1008C200BC000BBE0029EF8DF084FFADF022E4CC1A
:1008D200F875F008EF2FFFEE33FEEC33FCEE9DECE3
:1008E200984005FCEE9DFE0FD5F0E9E4CEFD22ED29
:1008F200F8F5F0EE8420D21CFEADF075F008EF2F73
:10090200FFED33FD4007985006D5F0F222C398FD63
:050912000FD5F0EA2200
:00000001FF
