:0D0903001208601208008F0A1208BF80F66B
:100860007F021208DD7F987E3A1208A77F281208BF
:10087000DD7F287E001208A77F061208DD7F287E14
:10088000001208A77F0F1208DD7F287E001208A73C
:0C0890007F011208DD7F747E400208A783
:1008DD008F0CC2A4E50C12089DC2A5E50C12089C54
:0308ED00C2A5227F
:1008F0008F0CD2A4E50C12089DC2A5E50C12089C31
:03090000C2A5226B
:0B089C00C454F0F580D2A57FE87E0375
:1008A700E4FDFCC3ED9FEE6480F8EC64809850078C
:0708B7000DBD00010C80ECF7
:0108BE002217
:10080000D295D296D29775096EC29520900375093C
:10081000332091037509362092037509392093031B
:10082000750923D295C29620900375093220910351
:10083000750935209203750938209303750930D264
:1008400096C29720900375093120910375093420D1
:10085000920375093720930375092AD297AF0922AD
:1008BF008F0BE509B46E0475080122E508B4010D2C
:0E08CF00E4F5087F011208DDAF0B1208F022DD
:03000000020910E2
:0C091000787FE4F6D8FD75810C02090325
:00000001FF
