:08094200020A0000020C000192
:0E093300E4FFFE0FBF00010EBE75F8BF30F5E9
:010941002293
:10080000C294750E00750F08750800750980E4F52F
:1008100010F511C3E511950FE50E6480F8E510643D
:1008200080985020E509450BF4F580E508A2E71310
:10083000F508E50913F5091209330511E51170D31F
:10084000051080CFE50B25E0F50BE50A33F50AE549
:100850000D420BE50C420AE50F150F7002150ED381
:10086000E50F9400E50E64809480509C7508007537
:100870000980E4F50EF50F850980E508A2E713F578
:1008800008E50913F5092480F509E43508F508128F
:100890000933050FE50F7002050EC39408E50E64D9
:0708A00080948040D280FE2D
:030000000208A74C
:0C08A700787FE4F6D8FD7581110208EEA0
:1008B300020800E493A3F8E493A34003F68001F253
:1008C30008DFF48029E493A3F85407240CC8C33346
:1008D300C4540F4420C8834004F456800146F6DF15
:1008E300E4800B0102040810204080900942E47E5A
:1008F300019360BCA3FF543F30E509541FFEE4930A
:10090300A360010ECF54C025E060A840B8E493A3D0
:10091300FAE493A3F8E493A3C8C582C8CAC583CAFB
:10092300F0A3C8C582C8CAC583CADFE9DEE780BEB3
:01094A0000AC
:00000001FF
