:060A3400010B00010A8025
:0A0A2A00C2941208E312098680F856
:1008E300D295D296D297C2952090067508007509C5
:1008F30003209106750800750906D295C2962090CB
:10090300067508007509022091067508007509052A
:10091300D296C297209006750800750901209106AA
:10092300750800750904209206750800750907D239
:02093300972209
:10098600E5087028E50924FE60131460131460134B
:1009960014601314601324057012020A12020A1E50
:0D09A6000209DE02093502088C1209B32295
:0C0A1200E4F580120A017580FF020A0161
:0C0A1E0075800F120A017580F0020A01B9
:10093500750C00750D80750E00750F01E4F510F549
:1009450011E50D450FF4F580E50CA2E713F50CE56F
:100955000D13F50DE50F25E0F50FE50E33F50E1238
:1009650008E3E509640445087016120A010511E556
:100975001170020510C39408E5106480948040C18D
:01098500224F
:1009DE00E50BC39408501BE50AF4F580E50AC31332
:1009EE00F50A050BE50BB40806E4F50B750A801243
:0309FE000A0122C9
:100A0100E4FFFE0FBF00010EBE75F8BF30F502080E
:010A1100E301
:10088C00E4F50EF50F7D01FC7B08FA750C00750D77
:10089C0080900000C3E5829BEA6480F8E583648065
:1008AC00985019E50D450FF4F580E50CA2E713F50A
:1008BC000CE50D13F50D120A01A380D8E50F25E008
:1008CC00F50FE50E33F50EED420FEC420EEB1B70FF
:0608DC00011AEB4A70B5A1
:0108E20022F3
:1009B300750E00750F017580FFE4F50CF50DE580EC
:1009C30025E0F580120A01050DE50D7002050CC343
:0B09D3009408E50C6480948040E4224E
:03000000020800F3
:0C080000787FE4F6D8FD758111020847EE
:10080C00020A2AE493A3F8E493A34003F68001F2CE
:10081C0008DFF48029E493A3F85407240CC8C333ED
:10082C00C4540F4420C8834004F456800146F6DFBC
:10083C00E4800B0102040810204080900A34E47E0E
:10084C00019360BCA3FF543F30E509541FFEE493B1
:10085C00A360010ECF54C025E060A840B8E493A378
:10086C00FAE493A3F8E493A3C8C582C8CAC583CAA3
:10087C00F0A3C8C582C8CAC583CADFE9DEE780BE5B
:010A3A0000BB
:00000001FF
